:020000041000EA
:1000000000B5324B212058609868022188439860DF
:10001000D860186158612E4B002199600221596106
:100020000121F02299502B49196001219960352056
:1000300000F044F80222904214D00621196600F024
:1000400034F8196E01211966002018661A6600F04E
:100050002CF8196E196E196E052000F02FF8012189
:100060000842F9D1002199601B49196000215960AB
:100070001A491B48016001219960EB211966A021F2
:10008000196600F012F800219960164914480160C1
:100090000121996001BC002800D000471248134993
:1000A000086003C880F30888084703B5996A0420EC
:1000B0000142FBD001200142F8D103BD02B5186610
:1000C0001866FFF7F2FF186E186E02BD00000240BE
:1000D000000000180000070000035F00212200005C
:1000E000F4000018222000A00001001008ED00E03C
:1000F00000000000000000000000000074B24E7A12
:1001000000200420F7010010C3010010C5010010F9
:10011000C1010010C1010010C1010010C101001097
:10012000C1010010C1010010C1010010C701001081
:10013000C1010010C1010010C9010010CB01001065
:10014000CD010010CD010010CD010010CD01001037
:10015000CD010010CD010010CD010010CD01001027
:10016000CD010010CD010010CD010010CD01001017
:10017000CD010010CD010010CD010010CD01001007
:10018000CD010010CD010010CD010010CD010010F7
:10019000CD010010CD010010CD010010CD010010E7
:1001A000CD010010CD010010CD010010CD010010D7
:1001B000CD010010CD010010CD010010CD010010C7
:1001C00000BE00BE00BE00BE00BE00BEEFF3058054
:1001D000103800BEF2EB8871A0140F10C4140F1079
:1001E0003402001090A31AE700201F49086006C8D7
:1001F00081F3088810471D48006800282FD10DA4FE
:100200000ECC002902D000F012F8F9E71849194A7B
:10021000002000E001C19142FCD1174988471749ED
:1002200088471749884700BEFDE701C901C29A42C5
:10023000FBD37047C4140F10C0000020D04800202A
:10024000D45C0F100000042000000420D45C0F10C8
:10025000001004200010042000000000704709482E
:100260005DF022FD0047000008ED00E0000000D036
:100270000049002090DC0120F9C40510290300107A
:100280002DC605105756000006005250ABB3605300
:10029000200C091006005250861C0302300C091075
:1002A000060052505422A29D3C0C091005005250E9
:1002B000DE65F468D45C0F10F8B5C04610B5064C86
:1002C0002378002B07D1054B002B02D0044800E017
:1002D00000BF0123237010BD304C0020000000003F
:1002E00000400810044B10B5002B03D0034904480C
:1002F00000E000BF10BDC04600000000344C0020EC
:100300000040081010B564F095F8044C206802F025
:1003100081FA206802F044FC10BDC046DC50002089
:1003200010B582F051FD0000922070B5800060F0A1
:1003300013F9040002F098FCC42300255B00E5508B
:1003400023008933FF335D609D6084239B00E018A8
:1003500000F0A2FC8D239B00E554114EE3185D6074
:100360001D619B60DB601420346060F0F5F80500CF
:1003700002F048FA0B4C3068256001F001FE0A4893
:1003800064F030F823681B7C002B04D1C04623683E
:100390001B7C002BFAD0306800F01AFD002070BDE5
:1003A000D8500020DC5000200503001010B5074C89
:1003B00020007BF0A5F920003C3C7BF073F9200085
:1003C0007BF09EF920007BF06DF910BDD0E5002098
:1003D000044B10B51868002803D09968091A60F01A
:1003E000CBF810BD40E50020F0B55746DE464E463E
:1003F000454681461823E0B54B448BB00360079314
:1004000001234360FE2300259B0503618560C560D1
:100410004561856110200F00511A4844C9100492AB
:10042000069080F0B7FF4B465B6804009A469842FE
:1004300014D9012800D1E3E080239B05984200D322
:10044000E8E08600300060F087F832000021050007
:1004500060F076F84B46A2461D605C60049BBB4290
:1004600057D04B461B68B846039308234B4405936B
:1004700043461F88514638005DF070FC8B009B4658
:100480005A46039B9B58002B0FD056468A461C6841
:10049000A588BD4233D02468002C06D0A588310041
:1004A00028005DF05BFC8A45F3D00C2060F054F826
:1004B000002306000822414608C060F047F80123E7
:1004C0004A4600934B4608ACDB6820005268069908
:1004D00080F0B4FF2378002B22D14B461B68039396
:1004E000039C5C442368002B00D176E01B683360DA
:1004F00023681E604B464A46DB680133D3600823FD
:100500009C46049BE044434503D04B465B689A46B7
:10051000AEE70BB0F0BCBB46B246A946A046F0BD64
:1005200063689A46012B6FD080239B059A4571D250
:1005300053469C00200060F00FF822000021039039
:100540005FF0FEFF4B4600229D689A60002D2BD085
:100550000023B3465646BA461F0005E012682260E3
:100560001B681C60002D1CD02C003100A0885DF0A1
:10057000F5FB039A8B00944663441A682D68002AA1
:10058000ECD14A46926822604A469460059A1A6005
:100590002368002B32D06346BF00FC500F00002DB3
:1005A000E2D15746B2465E464B4603CB079B834299
:1005B00002D089005FF0E0FF4B4652465A60039A32
:1005C00051461A6038005DF0C9FB8B009B46039CC6
:1005D0005C442368002B00D088E74B464A469B6862
:1005E00096603360002B06D0988851685DF0B6FBAA
:1005F000039B8900CE50059B23607BE70F00B1E78A
:100600004B469D61079D25E74B4600229A61079B5B
:10061000039397E780F002FEF0B54E46DE4657465C
:10062000454681461823E0B54B448BB003600793E1
:1006300001234360FE2300269B0503618660C6609C
:100640004661866110200D00511A4844C910049279
:10065000069080F09FFE4B465B6804009A469842E5
:1006600014D9012800D1E5E080239B05984200D3EE
:10067000EAE0870038005FF06FFF3A0000210600D3
:100680005FF05EFF4B46A2461E605C60049BAB427F
:1006900057D04B461B68039308234B4405932B8884
:1006A0005146180098465DF059FB8B009B465A4610
:1006B000039B9B58002B10D0474688461C68A68891
:1006C000BE423AD02468002C06D0A688514630009D
:1006D0005DF044FB8845F3D0B8460C205FF03CFF4A
:1006E0000022030004C306CD06C301234A4600933B
:1006F0004B4608ACDB68060052682000069980F083
:100700009DFE2378002B23D14B461B680393039C4B
:100710005C442368002B00D179E01B6833602368B8
:100720001E604B464A46DB680133D360049BAB42F4
:1007300007D04B465B689A46B1E7049B0835AB424D
:10074000F7D10BB0F0BCBB46B246A946A046F0BDFF
:1007500063689A46012B71D080239B059A4573D21A
:1007600053469C0020005FF0F7FE2200002103901A
:100770005FF0E6FE4B4600229F689A60002F2DD066
:1007800000239B462B005546B2465E469B4605E03D
:10079000126822601B681C60002F1CD03C002900DE
:1007A000A0885DF0DBFA039A8B00944663441A68D4
:1007B0003F68002AECD14A46926822604A4694601B
:1007C000059A1A602368002B32D06346B600F450B5
:1007D0000E00002FE2D15646AA465D464B4603CB9B
:1007E000079B834202D089005FF0C6FE4B4652460B
:1007F0005A60039A51461A6040465DF0AFFA8B008A
:100800009B46039C5C442368002B00D085E74B4645
:100810004A469B6896603360002B06D098885168E2
:100820005DF09CFA039B8900CE50059B236078E71E
:100830000E00B1E74B469E61079E23E74B46002220
:100840009A61079B039395E780F0E8FC012270B55D
:1008500016000F4D2B78BFF35B8F1E401A4202D05B
:100860000C4C200070BD280080F0C0FA094C002814
:10087000F7D0094BA222E650084B00212670666093
:10088000A660E0185FF05CFE280080F0CBFAE8E795
:10089000A44C00203CE600208C400000904000006A
:1008A0000122F0B54646D6464F461500C0B5244C49
:1008B00006002378BFF35B8F1D401A4229D0CA2758
:1008C00000237F00F35101339946D0231B060024F7
:1008D00098461C4D0023EB56002B11DD200059F0EB
:1008E00095FE4B46A3409A464346524601219A62E2
:1008F0002000002259F02CFE5346F2591343F351C5
:10090000013414351E2CE5D1E0BCBA46B146A846E8
:10091000F0BD200080F06AFA0028D0D00A480B4BC6
:100920000570C5500A4B45609C468560A222002197
:1009300060445FF005FE200080F074FABFE7C04617
:10094000A44C0020712701203CE600208C400000D0
:1009500090400000D023F0B545464E46DE4657464F
:1009600001221B06E0B55E681500F34383B00193D6
:10097000444B040098461B78BFF35B8F1D401A421E
:100980006AD0414F38001AF0CFFCCA235B00019AAD
:10099000E35800901340B822520082589A4214D073
:1009A0000122434611001B78BFF35B8F1940894633
:1009B0001A423BD0A323DB00FB589B46002B0BD1F4
:1009C000009A01997133FF33D15003B0F0BCBB469C
:1009D000B246A946A046F0BD02F032F9CA23B821BA
:1009E00022005B0049008246E75801200023894627
:1009F0009932FF3201009940394212D04C46009D95
:100A0000019E2C592500754029420AD0554616688A
:100A1000AD1B5D4505D961404C46009D29515146AD
:100A20001160013304321E2BE4D1CEE7404680F042
:100A3000DDF90028BED04B464A463B707B60BB6068
:100A4000124B0021FA50124BA222F8185FF078FDE9
:100A5000404680F0E7F9ADE7404680F0C7F90A4F1D
:100A6000002800D18EE7094BA222FD50084B00213F
:100A70003D707D60BD60F8185FF062FD404680F01B
:100A8000D1F97FE7A44C00203CE600208C40000018
:100A900090400000F8B5CE46474680B504001AF0F5
:100AA000B5FF754A0300904216D0744A90420AD0AE
:100AB0000020002B12D0C0BCB946B046F8BD28209B
:100AC000285CC00760D50220F5E72821695C0A424E
:100AD000F9D10121002B59D00120ECE701221500AA
:100AE000674B98461B78BFF35B8F1D401A4264D05A
:100AF000644F38001AF018FC0122434616001B7898
:100B00000500BFF35B8F1E401A4200D19DE0380004
:100B10001AF00EFC06002000FFF71CFF280002F070
:100B200043FEC4235B009946A1440021484603F0DC
:100B3000F1FE280002F090FD0021484603F002FF7C
:100B4000300029002422283028315FF0FFFC0122E8
:100B5000434616001B78BFF35B8F1E401A4260D0DD
:100B6000494BFA5C012A3DD0D31E59424B41EF6AF2
:100B7000C020D9B280233E00023A9B008000D2B24E
:100B80003B40064086429AD0012AA3D8002971D161
:100B90008D228C23920094469B00E3189B6864444A
:100BA000002B67D0220003E01A009B68002B28D09E
:100BB0001969B942F8D2DB68F8E7404680F016F9C7
:100BC000304F002895D0314BA222FD50304B0021F0
:100BD0003D707D60BD60F8185FF0B2FC404680F06B
:100BE00021F986E7EF6A8023C02138009B00890045
:100BF0003B400840884200D167E71800431E9841F7
:100C000059E70020944200D155E71369BB4200D94F
:100C100051E753690E2B00D94DE71E4A9B009858A7
:100C200049E7404680F0E2F8002899D0174BA2220D
:100C3000FE50174B00213E707E60BE60F8185FF0DA
:100C40007FFC404680F0EEF88AE7404680F0CEF820
:100C5000002800D15BE70D4BA222FE500C4B002177
:100C60003E707E60BE60F8185FF06AFC404680F01F
:100C7000D9F84CE700201EE7A58477E7E1E437F7D1
:100C8000A44C00203CE60020AA3400008C40000068
:100C90009040000040430810002305490370054BB5
:100CA00001611A685B688260C3608261C3617047DA
:100CB0000C020C0168090910F0B5037804000D005E
:100CC000170083B0002B1DD1CB6A002B08D0394B05
:100CD0001A685B68009201938260C36003B0F0BD44
:100CE000C168806803000B4341D00D00324B5A6A43
:100CF000AA42F3D39B6A834201D2AA42EED00123D7
:100D00002370EBE7CB6A028A93420AD0428A93426D
:100D100007D0284B1A685B68009201938261C36117
:100D2000DCE7A069E16903000B4314D00E00224BFD
:100D30005A6AB242D2D39B6A834201D2B242CDD028
:100D4000EB6A228A93421ED0628A9342C6D11B4824
:100D50001AF024FEC2E75AF0B5FD0023184A8018A5
:100D6000594100291BDB0E00A061E161DFE75AF069
:100D7000A9FD3222002380185941002914DB0D00FF
:100D8000A060E160B2E73800431E98410D4B0E4A67
:100D90009C464042104060441AF000FE9EE701204D
:100DA0000A4E0A494042DFE70120084D0749404208
:100DB000E6E7C0466809091000400540E1E437F75E
:100DC00000093D00A58477E728E25D5CFFFFFF7F17
:100DD000F0B54546DE4657464E46E0B5DA4C0500CE
:100DE000237889B0BFF35B8FDB0700D40BE2D74BCE
:100DF0001B680393FFF72AFD1AF096FA8046FFF767
:100E000025FD1AF095FA0400FFF720FD1AF088FA84
:100E10000190002063F08EFFC4235B009C46AC442D
:100E20006346029384239B009C46AC446346009334
:100E30002823434404930123994628340594BA2374
:100E400042465B00D35C002B47D14C464A46C04B20
:100E50001B78BFF35B8F1C401A4200D1E0E0BD4815
:100E600019F066FC2800FFF775FD404602F09CFC77
:100E7000019B002B00D1A0E04A46B74B1B78BFF383
:100E80005B8F1A4200D1E4E0B44803F087FE84236C
:100E90009B00EB5C002B00D07EE04346DB6A002B1E
:100EA00000D003E1009B9868D96803000B4300D190
:100EB0008EE10C00AA4B5A6AA242C0D39B6A8342BD
:100EC00001D2A242BBD084234A469B00EA54BA23F3
:100ED00042465B00D35C002BB7D04C464A469C4B45
:100EE0001B78BFF35B8F1C401A4200D14AE19D4F33
:100EF00000243E000023F356002B02DD200059F0B1
:100F0000A3FB013414361E2CF4D14C464A46904BB8
:100F10001B78BFF35B8F1C401A4200D1FBE08D4869
:100F20001AF096F94C464A46894B1B78BFF35B8F03
:100F30001C401A4200D1D5E0CA235B009A46002328
:100F40005246AB50D0231B0600249B460023FB5681
:100F5000002B10DD4E46200059F058FBA6405B46A2
:100F600000229E620121200059F0F2FA5346EB580C
:100F70001E435346EE50013414371E2CE6D1404632
:100F800002F04CFA0021029803F0A6FCBA230022DA
:100F900041465B00CA5458E743460099DB6A0A8A17
:100FA000934260D04A8A93425DD06F4B5C681B6865
:100FB000069307948B61CC6141E74A466B4B1B78E3
:100FC000BFF35B8F1A427AD069481AF081FF029C06
:100FD0000021200003F09EFC404603F039F8002277
:100FE00041460098FFF768FE404602F035FB2000BE
:100FF000002103F0A7FC0499242205985FF0A6FACB
:10100000039A4146136810009B689847200001210D
:1010100003F098FC01200021404263F0FDFE0EE742
:101020004B487FF0E3FE002800D118E7494B494ABE
:101030001C705C609C604F4B1000D4504E4BA22241
:101040009C46002160445FF07BFA41487FF0EAFE55
:1010500005E741487FF0CAFE002800D114E73E486A
:101060007FF0E0FE10E7009B9869D96903000B430D
:1010700000D1A0E00C003A4B5A6AA24200D2DEE650
:101080009B6A834202D2A24200D1D8E64346009A2C
:10109000DB6A128A934200D1A7E0009A528A9342F7
:1010A00000D0CCE635481AF079FCC8E62E4B009A01
:1010B0005C681B68069307949360D460BFE62B4876
:1010C0007FF094FE002800D17EE7294A019B2C483E
:1010D000136053609360136181F07EFE23487FF0BC
:1010E000A1FE71E71A487FF081FE002800D123E7B6
:1010F000184B184A1C705C609C601E4B1000D4504A
:101100001D4BA2229C46002160445FF019FA104852
:101110007FF088FE10E70E487FF068FE002800D1BF
:10112000FDE60C4B0B4A1C705C609C60114B100080
:10113000D450114BA2229C46002160445FF000FA7B
:1011400003487FF06FFEEAE6904C002034E5002073
:10115000A44C00203CE600208C4C00202CE5002014
:10116000004005407127012068090910984C0020B3
:1011700040E500208C40000090400000E1E437F79B
:10118000D103001025487FF031FE002800D1AEE6E3
:10119000234B234A1C705C609C60224B1000D4508F
:1011A000214BA2229C46002160445FF0C9F91B48F4
:1011B0007FF038FE9BE65AF085FB00241B4BC018DD
:1011C0006141002915DB0C00009B9861D96152E751
:1011D0005AF078FB322200238018594100290DDB98
:1011E0000C00009B9860D96064E611481AF0D6FBA9
:1011F00025E601200F4C0F494042E5E701200D4C48
:101200000C494042EDE720007FF0F0FD002800D1BE
:10121000EDE520007FF006FEE9E5C046A44C002085
:101220003CE600208C4000009040000000093D009A
:10123000CD66D543FFFFFF7FF0B50500C646CB68FE
:101240000020EB602B0000B54E680C0028606E603B
:10125000A8601033103184C984C32F00A8611837E7
:10126000012E0CD080239B059E4248D2B600300050
:101270005FF072F93200002107005FF061F9A468A5
:101280002F60002C37D00C205FF066F9002203009D
:10129000070004C3221D03CA03C3AF60B88869688E
:1012A0005CF05CFD2B002A68890008338B502668AF
:1012B000002E20D0002398460C205FF04DF94246C6
:1012C0000300040004C3321D03CA03C33C60A088AA
:1012D00069685CF043FD2B6889009C4661440B689B
:1012E000002B04D03668002E05D02700E4E70F60FD
:1012F0003668002EF9D1280080BCB846F0BD7FF0DA
:101300008DFFC046F0B50500C646CB680020EB60F7
:101310002B0000B54E680C0028606E60A86010338A
:10132000103184C984C32F00A8611837012E0CD056
:1013300080239B059E4248D2B60030005FF00CF936
:101340003200002107005FF0FBF8A4682F60002C3A
:1013500037D00C205FF000F900230700082208C0F6
:10136000211D5FF0F3F8B8886968AF605CF0F6FCA7
:101370002B002A68890008338B502668002E20D065
:10138000002398460C205FF0E7F84346040008224B
:1013900008C0311D5FF0DAF8A08869683C605CF035
:1013A000DDFC2B6889009C4661440B68002B04D04F
:1013B0003668002E05D02700E4E70F603668002E5F
:1013C000F9D1280080BCB846F0BD7FF027FFC046A9
:1013D000F0B54F46D64646468C680B1DC0B58146D3
:1013E0000F0090469A46002C1DD0166804E0A368B2
:1013F0000122002B07D01C002569AE42F7D3E36819
:101400000022002BF7D12300002A0DD1B54218D3BA
:1014100023004A461360002313714846E0BCBA46D5
:10142000B146A846F0BD1C00FB68A3420CD02000CA
:101430007FF016FE434605691E6823000400B5428E
:10144000E6D2002BE5D01C00A2451ED043461B6807
:101450009C4623699C45B641764218205FF07CF893
:10146000030005004246103303CA03C3534622005B
:10147000290030007FF010FE7B694A4601337B6112
:101480004B461D6001231371C7E70126E5E7C046FF
:10149000F0B557464546DE464E468046E0B50F005D
:1014A00018218BB04144140004920791012201607D
:1014B000FE21426089050022016110218260C26024
:1014C00042618261E21B9210414405911101891829
:1014D0000A0289180A0489184942994200D219005F
:1014E00005987FF057FF43465B6804009A468342A5
:1014F00014D2012800D1EEE080239B05984200D34E
:10150000F4E0860030005FF027F83200002105008B
:101510005FF016F84346A2461D605C60049B9F4244
:101520005DD043461B6803930823434406933B88DE
:101530005146180099465CF011FC8B009B465A46B8
:10154000039B9B58002B10D04E4689461C68A588EB
:10155000AE423CD02468002C06D0A5885146280015
:101560005CF0FCFB8945F3D0B14640205EF0F4FF0F
:101570000023060003603B88391D83800830FFF795
:101580005BFE3000390024302031FFF7BBFE012321
:1015900042460093434608ACDB6820005268059938
:1015A0007FF04CFF2378002B21D143461B68039327
:1015B000039C5C442368002B00D179E01B683360F6
:1015C00023681E6043464246DB680133D360049BB8
:1015D0003C37BB4203D043465B689A46A7E7404688
:1015E0000BB0F0BCBB46B246A946A046F0BD63684E
:1015F0009A46012B74D080239B059A4576D2534698
:101600009C0020005EF0A8FF2200002103905EF005
:1016100097FF434600229D689A60002D2FD000233B
:1016200032009B463B0056465F4692469B4605E08D
:10163000126822601B681C60002D1CD02C00310039
:10164000A0885CF08BFB039A8B00944663441A6875
:101650002D68002AECD1424692682260424694608E
:10166000069A1A602368002B33D06346BF00FC50F3
:101670000F00002DE2D153465F46B2461E0043469E
:1016800003CB079B834202D089005EF075FF43467F
:1016900052465A60039A51461A6048465CF05EFB17
:1016A0008B009B46039C5C442368002B00D085E79D
:1016B000434642469B6896603360002B06D098886C
:1016C00051685CF04BFB039B8900CE50069B236066
:1016D00078E70F00B0E700234246079D936119E7C2
:1016E000434600229A61079B039392E77FF096FDA1
:1016F000F0B5DE4657464E464546DD49E0B50A00A0
:10170000DC4CDD4BA54403608346103210A8FEF785
:1017100083FFDA4900250A0080AC103217A8FEF7D3
:1017200063FE10A9258081A8FFF786FD17A988A868
:10173000FFF7E8FDD2491EA80A007832FEF76CFFD9
:10174000D04901260A0025A83032FEF74DFEA687B3
:101750001EA990A8FFF770FD25A997A8FFF7D2FD55
:10176000C9492CA80A002032FEF756FF102200219A
:1017700036A85EF0E5FEFE239B0506229A463793C7
:1017800078232CA9E25239AF9FA834963397359528
:10179000FFF752FD33A9A6A8FFF7B4FDBB493AA84D
:1017A0000A005032FEF738FFB94941A80A00183242
:1017B000FEF71AFEB42303223AA9E252AEA8FFF7BD
:1017C0003BFD41A9B5A8FFF79DFDB24948A80A0015
:1017D0004032FEF721FFB0494FA80A001032FEF751
:1017E00003FEF023042248A9E252BDA8FFF724FD1E
:1017F0004FA9C4A8FFF786FDA84956A80A00483299
:10180000FEF70AFFA6495DA80A003032FEF7ECFD9C
:10181000962305225B00E25256A9CCA8FFF70CFDE7
:101820005DA9D3A8FFF76EFD9E4964A80A0018328F
:10183000FEF7F2FE102200216EA85EF081FE71AB71
:101840006B93984653466F93B42308225B00E25291
:1018500064A9DBA86C966D95FFF7EEFC6BA9E2A876
:10186000FFF750FD904972A80A001832FEF7D4FE27
:10187000102200217CA85EF063FE7FAB799399462D
:1018800053467D93D22309225B00E25272A9EAA853
:101890007A967B95FFF7D0FC79A9F1A8FFF732FD86
:1018A00058460CAB05930FAB04930BAB03930EABF5
:1018B00002930DAB01930AAB009321000023143077
:1018C000F8AAFFF7E5FDF8AE3C3EB56A002D06D05C
:1018D00028002D680C215EF04FFE002DF8D1736AB0
:1018E00000219A00306A5EF02BFE0023F362B3629F
:1018F0003300306A3833716A984202D089005EF052
:101900003BFEF568002D06D028002D680C215EF006
:1019100033FE002DF8D1B36800219A0070685EF0A4
:101920000FFE00233361F360330070681C33B1682D
:10193000984200D118E389005EF01EFEA642C3D192
:101940007B9D002D06D028002D680C215EF014FE32
:10195000002DF8D17A9B00219A00799B18000793FB
:101960005EF0EEFD002379987A997C937B9348454D
:1019700002D089005EF000FE749D002D06D0280084
:101980002D680C215EF0F8FD002DF8D1739B00212D
:101990009A00729807935EF0D3FD002372987593B6
:1019A000749378AB7399984202D089005EF0E4FD9D
:1019B0006D9D002D06D028002D680C215EF0DCFD09
:1019C000002DF8D16C9B00219A006B9B18000793A7
:1019D0005EF0B6FD00236B986C996E936D93404555
:1019E00002D089005EF0C8FD669D002D06D028005B
:1019F0002D680C215EF0C0FD002DF8D1659B002103
:101A00009A00649807935EF09BFD002364986793A7
:101A100066936AAB6599984202D089005EF0ACFD8E
:101A20005F9D002D06D028002D680C215EF0A4FDDE
:101A3000002DF8D15E9B00219A005D9B1800079352
:101A40005EF07EFD00235D9860935F9363AB5E99CB
:101A5000984202D089005EF08FFD589D002D25D060
:101A600028002D680C215EF087FD002DF8D11DE0C7
:101A7000F84008101CFCFFFF98EE08100841081001
:101A80001841081090410810C0410810E0410810AA
:101A90003042081048420810884208109842081046
:101AA000E04208101043081028430810579B0021FB
:101AB0009A00569807935EF043FD00235698599379
:101AC00058935CAB5799984202D089005EF054FD60
:101AD000519D002D06D028002D680C215EF04CFD94
:101AE000002DF8D1509B00219A004F9B18000793BE
:101AF0005EF026FD00234F985293519355AB5099B9
:101B0000984202D089005EF037FD4A9D002D06D034
:101B100028002D680C215EF02FFD002DF8D1499B87
:101B200000219A00489807935EF00AFD0023489828
:101B30004B934A934EAB4999984202D089005EF08C
:101B40001BFD439D002D06D028002D680C215EF062
:101B500013FD002DF8D1429B00219A00419B1800F3
:101B600007935EF0EDFC002341984493439347AB09
:101B70004299984202D089005EF0FEFC3C9D002D07
:101B800006D028002D680C215EF0F6FC002DF8D15F
:101B90003B9B00219A003A9807935EF0D1FC00230A
:101BA0003A983D933C9340AB3B99984202D08900D0
:101BB0005EF0E2FC359D002D06D028002D680C213A
:101BC0005EF0DAFC002DF8D1349B00219A00339BA3
:101BD000180007935EF0B4FC0023339834993693D1
:101BE0003593B84202D089005EF0C6FC2E9D002DD0
:101BF00006D028002D680C215EF0BEFC002DF8D127
:101C00002D9B00219A002C9807935EF099FC0023ED
:101C10002C982F932E9332AB2D99984202D08900A5
:101C20005EF0AAFC279D002D06D028002D680C210F
:101C30005EF0A2FC002DF8D1269B00219A00259B86
:101C4000180007935EF07CFC0023259828932793C7
:101C50002BAB2699984202D089005EF08DFC209D26
:101C6000002D06D028002D680C215EF085FC002D8B
:101C7000F8D11F9B00219A001E9807935EF060FC2C
:101C800000231E982193209324AB1F99984202D0E1
:101C900089005EF071FC199D002D06D028002D688A
:101CA0000C215EF069FC002DF8D1189B00219A00F0
:101CB000179B180007935EF043FC002317981A93B4
:101CC00019931DAB1899984202D089005EF054FC1C
:101CD000129D002D06D028002D680C215EF04CFCD2
:101CE000002DF8D1119B00219A00109807935EF007
:101CF00027FC002310981393129316AB1199984266
:101D000002D089005EF038FC00235A46594613631E
:101D100053639363D3631364536448228B54023236
:101D20008B5274220026CB640B654B658B65CB65AB
:101D30000B664B668B66CB660B678B5202328E54FA
:101D40000521802584209027753A22800132228245
:101D50000132228401326360E360A3606361E36166
:101D6000A3616362E362A36222863C326363E3633E
:101D7000A363A152103201316364E364A364A152EE
:101D8000103201316365E365A365A1521032013160
:101D90006366E366A366A152673A6367E367A36776
:101DA0006253833223508031A3509046823A63506D
:101DB000E2530437E3510837E351043FE351013262
:101DC0000837E2530437E3510837E351043FE35146
:101DD00001320837E2530437E3510837E351043F37
:101DE000E35101320837E2530437E3510837E35136
:101DF000043FE35101320837E2530437E351083717
:101E0000E351043FE35101320837E2530437E35111
:101E10000837E351043FE35101320837E2530437F6
:101E2000E3510837E351043F5A46E3517C241655E9
:101E30005C445351145054504146089480AC0026E1
:101E400027005350099447E088235A46D4583B88CA
:101E5000228A9A4242D2089BA34200D188E03B8862
:101E6000228A93429B415B42079320205EF074FBE1
:101E70003B8805000382BB6899467B6898464B46C1
:101E800042469E1A002343618361C361C14558D015
:101E90003A4B9E4200D96EE030005EF05DFB831944
:101EA0009A466861EB61C14503D0320041465EF05D
:101EB0004DFB53462200AB612900089B07987FF039
:101EC000EBF88C235A46D258561C07925A46D650E5
:101ED0001037C0AB9F421ED0002EB5D180235A468A
:101EE000D458002C33D0398804E0A3680120002B9B
:101EF00007D01C00228A8A42F7D8E3680020002B12
:101F0000F7D1002824D19142E2D9002CA3D1103777
:101F1000C0AB9F42E0D13D00099C103D686800289D
:101F200012D0EB68191A5EF027FBA542F5D158468E
:101F3000F9239B009D44F0BCBB46B246A946A0468F
:101F4000F0BD00260020AAE7A542E6D1EFE7089CF5
:101F500084235A46D358A34200D17CE720007FF067
:101F60007FF83988028ACEE7A64200D0ACE4E7E4E5
:101F70000123079379E77FF051F9C046FCFFFF7F0B
:101F80000122F0B557464E46DE4645461400E0B500
:101F9000F94F81463B7887B0BFF35B8F1C401A42F4
:101FA00000D134E3F54D280018F0A6FBF44E337849
:101FB000BFF35B8FDB0700D408E3F24C200018F07E
:101FC000EDF93378BFF35B8FDB0700D4DEE220004E
:101FD00018F048FA3378BFF35B8FDB0700D4B5E223
:101FE000200018F093F93378BFF35B8FDB0700D440
:101FF0008CE22000002118F0DDFA04AB9A4602AC16
:10200000002800D076E2C42040005EF0A5FA8046A9
:1020100000F02AFEC42040005EF09EFA060000F0A8
:1020200023FE012211003B78BFF35B8F19408B46E2
:102030001A4200D13DE24146280019F073F901220D
:1020400011003B78BFF35B8F19408B461A4200D1D9
:1020500018E23100280019F069F9012216003B78D6
:10206000BFF35B8F1E401A4200D1F6E1280019F041
:10207000EFF8404600F0B8FE4846FEF711FC01229A
:1020800016003B78BFF35B8F1E401A4200D1CFE1B0
:1020900001239B460293A4238C26DB00EB58B60059
:1020A0004E442200310050466360FFF791F902234D
:1020B0000293A523DB00EB582200310050466360F9
:1020C000FFF786F904230293A623DB00EB582200D6
:1020D000310050466360FFF77BF908230293A72382
:1020E000DB00EB582200310050466360FFF770F9C7
:1020F00010230293A823DB00EB5822003100504646
:102100006360FFF765F940230293A923DB00EB58D6
:102110002200310050466360FFF75AF920230293F2
:10212000AA23DB00EB582200310050466360FFF722
:102130004FF980230293AB23DB00EB5822003100E0
:1021400063605046FFF744F96CF016FD08205EF01E
:1021500003FA4C46002389349A4643608A4BFF3485
:10216000036001000022200002F0A6FC88205EF03F
:10217000F3F90600882200215EF0E2F9834B31007A
:1021800033600022200002F06DFC0C205EF0E4F9C8
:102190005346436083607E4B0100036000222000B1
:1021A00002F060FC20205EF0D7F90600202200211A
:1021B0005EF0C6F9774B310033600022200002F058
:1021C00051FC10205EF0C8F90600102200215EF0DC
:1021D000B7F9714B310033600022200002F042FC5D
:1021E00028205EF0B9F90600282200215EF0A8F947
:1021F0006A4B310033600022200002F033FC3420AF
:102200005EF0AAF90600342200215EF099F9644BD1
:1022100031003360634B00223363200002F022FC64
:1022200090205EF099F90600902200215EF088F976
:102230003000FFF75DFA31000022200002F012FCAE
:1022400028205EF089F90600282200215EF078F946
:10225000554B310033600022200002F003FC1020B7
:102260005EF07AF90600102200215EF069F94F4B0A
:10227000310033600122200002F0F4FB1C205EF0EC
:102280006BF906001C2200215EF05AF9484B310020
:1022900033600022200002F0E5FB34205EF05CF9A0
:1022A0000600342200215EF04BF9424B31003360CE
:1022B0000022200002F0D6FB80205EF04DF90600DF
:1022C000802200215EF03CF930003B4B202233603D
:1022D000002108305EF034F95B465A463000337511
:1022E0002333F25435493F3238305EF02FF9310054
:1022F0000022200002F0B6FB38205EF02DF9060027
:10230000382200215EF01CF92D4B3100336053461A
:10231000337333000C337361B3610022200002F089
:10232000A1FB24205EF018F90600242200215EF0B3
:1023300007F9244B310033600022200002F092FBA9
:1023400078205EF009F90600782200215EF0F8F8A6
:102350001D4B310033600022200002F083FB582027
:102360005EF0FAF80600582200215EF0E9F8174BFB
:10237000002220002CE0C046A44C00203CE60020B7
:102380009C4C002054E500203CE0081060DD081063
:1023900044DE0810C8DF0810B4DE0810ACE10810F5
:1023A00090F0081033335340ACEF081070EA081077
:1023B0006CED081018F00810D0EB081080400810E1
:1023C000C0E2081044EC0810E8EC081040EF0810D8
:1023D0003360310002F046FBBC2342465B00D35819
:1023E00048465C78FEF756FB112804D8CB4B80009A
:1023F0001B589F460124CA4D2B78BFF35B8FDB0728
:102400006ED52100C74812F09DFBBC2342465B00FD
:10241000D3585A78A24206D107B0F0BCBB46B246A8
:10242000A946A046F0BD40465C7001F055FBF3E7BD
:1024300038007EF0DBFC002800D129E6BA4BA2224E
:10244000EE50BA4B00212E706E60AE60E8185EF060
:1024500077F838007EF0E6FC1AE638007EF0C6FC1D
:10246000002800D102E6B04BA222EE50AF4B002173
:102470002E706E60AE60E8185EF062F838007EF094
:10248000D1FCF3E538007EF0B1FC002800D1E0E596
:102490005B465A462B706B60AB60A34B0021EA5041
:1024A000A24BA222E8185EF04BF838007EF0BAFC8E
:1024B000CFE538007EF09AFC002800D1BBE55B46F2
:1024C0005A462B706B60AB60974B0021EA50974BDC
:1024D000A222E8185EF034F838007EF0A3FCAAE5EA
:1024E00028007EF083FC002800D18AE728007EF0D7
:1024F00099FC86E722008E4801A957F049FF002881
:1025000000D09AE08A498B485AF094F830007EF067
:102510006DFC002800D16CE5200078F0C5FE20009D
:10252000203078F0C1FE2000403078F0F9FF200024
:102530007C3078F0F5FF2000B83079F063F97E4800
:1025400080F04AFC30007EF06DFC52E530007EF0F9
:102550004DFC002800D143E5200078F0A5FE2000C6
:10256000203078F0A1FE2000403078F0D9FF200024
:102570007C3078F0D5FF2000B83079F043F96E4810
:1025800080F02AFC30007EF04DFC29E530007EF022
:102590002DFC002800D11AE5200078F085FE2000EF
:1025A000203078F081FE2000403078F0B9FF200024
:1025B0007C3078F0B5FF2000B83079F023F95E4820
:1025C00080F00AFC30007EF02DFC00E530007EF04B
:1025D0000DFC5A4C002800D1F0E4200078F064FE95
:1025E0002000203078F060FE2000403078F098FF26
:1025F00020007C3078F094FF2000B83079F002F9A8
:102600004D4880F0E9FB30007EF00CFCD6E4380049
:102610007EF0ECFB4A4D002800D1C4E4424BA222DC
:10262000EC50424B00212C706C60AC60E8185DF0FF
:1026300087FF38007EF0F6FBB5E4049A0299019812
:1026400057F06AFEDFE4012214003B78BFF35B8F92
:102650001C401A424DD00121280018F053FE304C86
:102660002378BFF35B8FDB073AD5FF212D4812F0AB
:1026700069FA344C2378BFF35B8FDB0727D5002141
:10268000314802F079FAC7E60E24B4E60324B2E634
:102690000024B0E60724AEE60524ACE60D24AAE645
:1026A0000424A8E60224A6E60B24A4E60A24A2E653
:1026B0000C24A0E609249EE608249CE606249AE65B
:1026C00022485BF0F1FA002103000800984720003F
:1026D0007EF08CFB0028D2D020007EF0A3FBCEE75A
:1026E00020007EF083FB0028BFD020007EF09AFB04
:1026F000BBE738007EF07AFB0028ACD00A4BA22260
:10270000EC500A4B00212C706C60AC60E8185DF056
:1027100017FF38007EF086FB9DE7C0463440081066
:10272000904C002034E500208C40000090400000D8
:10273000C0D4010000400810AD03001054E5002093
:102740003CE600208C4C00202CE500205542000087
:1027500030B5184A8FB0136801331360012B08D1CC
:102760000122154B52421A6000225A609A60DA60C8
:102770001A61124A136801331360012B01D00FB0A4
:1027800030BD0F493822403168465DF0DFFE00233E
:102790000C4C382023606360A3605DF0DDFE050013
:1027A0003822383569462060A5605DF0CFFE65604F
:1027B000E5E7C046804C0020684C00207C4C00209F
:1027C0008040081088350120044B10B51868002897
:1027D00003D09968091A5DF0CFFE10BD40E50020D6
:1027E00010B5074C200078F08BFF20003C3C78F0BF
:1027F00059FF200078F084FF200078F053FF10BDCF
:10280000D0E500200023036043608360C36003744D
:102810007047C046F8B54E464546DE465746E0B5D9
:10282000CD4D06002B78BFF35B8FDB0700D4CEE0E5
:10283000CA4C200017F0B2FD2B78BFF35B8FDB078B
:1028400000D4EDE0200017F00DFE2B78BFF35B8F76
:10285000DB0700D40CE1200017F058FDC04C2378B2
:10286000BFF35B8FDB0700D422E1BE4B18683060FA
:10287000002800D12BE103685B6898473068036843
:102880005B6B9847B84B041E994600D19CE001222F
:1028900015001B78BFF35B8F1D401A4200D147E142
:1028A000B24B9A462100504619F0B8FA60205DF00C
:1028B00053FE0400602200215DF042FEAC4B002577
:1028C000236001232374984623002033A36120232F
:1028D000371DE55421000322380002F0C3F8EA2036
:1028E00080005DF039FEEA220400002192005DF0D4
:1028F00027FEA04B20002360CC230A225B00D530AA
:10290000E250FF3074F07EF9E3239B00E554E318B6
:102910005D601D61032221009B60DB60380002F0D6
:10292000A1F820205DF018FE4246934BC560057467
:1029300045618561914D03602B7804001A409346F0
:102940004246BFF35B8F1A4200D1D7E08C4B9846CA
:1029500042468C4B2100D35C38002372032202F0E4
:1029600081F810205DF0F8FD0400102200215DF0D8
:10297000E7FD854B210023600322380002F072F846
:102980001C205DF0E9FD04001C2200215DF0D8FD53
:102990007E4B032223602100380002F063F80122FD
:1029A0004B4614001B78BFF35B8F1C401A4200D1CA
:1029B00092E0504619F0B4F901233374F0BCBB46E1
:1029C000B246A946A046F8BD684B9A466EE7280075
:1029D0007EF00CFA614C002800D12AE7200078F044
:1029E00063FC2000203078F05FFC2000403078F05D
:1029F00097FD20007C3078F093FD2000B83078F00F
:102A000001FF634880F0E8F928007EF00BFA20000F
:102A100017F0C4FC2B78BFF35B8FDB0700D511E701
:102A200028007EF0E3F9002800D10BE7200078F0C1
:102A30003BFC2000203078F037FC2000403078F05C
:102A40006FFD20007C3078F06BFD2000B83078F00E
:102A5000D9FE4F4880F0C0F928007EF0E3F920004D
:102A600017F000FD2B78BFF35B8FDB0700D5F2E694
:102A700028007EF0BBF9002800D1ECE6200078F0B9
:102A800013FC2000203078F00FFC2000403078F05C
:102A900047FD20007C3078F043FD2000B83078F00E
:102AA000B1FE3B4880F098F928007EF0BBF9D2E6F1
:102AB00020007EF09BF9002800D1D6E620007EF0B1
:102AC000B1F9284B18683060002800D0D3E6264BB7
:102AD0009946264B9A46E9E648467EF087F9002853
:102AE00000D166E753462B481C605C609C601C610B
:102AF00080F072F948467EF095F95AE728007EF09A
:102B000075F91F4B9846002800D121E75A465946CF
:102B10001A705A609A6042461F4B2048D150404478
:102B2000A22200215DF00CFD28007EF07BF90FE76A
:102B300048467EF05BF90D4B9A46002800D1B1E67D
:102B40001D605D609D601D61124880F045F948463A
:102B50007EF068F9A6E6C0469C4C002054E50020B3
:102B6000904C002034E50020984C002040E50020E7
:102B7000E8E7081000EA08102CEB0810A44C00202D
:102B80003CE60020350E0000D0DD081054DF0810B0
:102B9000E1270010C92700108C4000009040000081
:102BA00070B50400051D2800032101F0CBFE20684C
:102BB0000028F8D00368DB6898472800032101F05B
:102BC000C1FE20680028F5D1EDE7C04630B5174AB0
:102BD0008FB0136801331360012B08D10122144B0D
:102BE00052421A6000225A609A60DA601A61114AF1
:102BF000136801331360012B01D00FB030BD3822B0
:102C00000D4968465DF0A2FC00230C4C382023607F
:102C10006360A3605DF0A0FC05003822383569468A
:102C20002060A5605DF092FC6560E6E7804C0020C6
:102C3000684C00207C4C00207C4308108835012023
:102C400010B558F03FFE002905D0FA22002392006B
:102C50005BF0C2F810BDFA2189005BF07FF8F9E75C
:102C600010B558F02FFE10BDF8B500250026040061
:102C7000282705808560867006714F4B4F48504964
:102C8000504AE06021616261A361E3612362636293
:102C9000E6552437E56220636163A263E36323643E
:102CA0006364A364E65523666366A366E3667023E4
:102CB000606520002565A165E265E5521033656712
:102CC000A567E567E5500433E5500433E550043368
:102CD000E5500433E5501022002194305DF030FCC3
:102CE000A423E5500433E5500433E5500433E550A4
:102CF0000433E5500433E5500433E5500433E55024
:102D00000433E5500433E5500433E5500433E55013
:102D10000433E5500433E55023000122DA335D80AB
:102D2000BA231700284D5B00E6542B78BFF35B8F66
:102D30001F401A4214D00122BC231700234E5B000F
:102D4000E6502B78BFF35B8F1F401A421ED0C02382
:102D50001F4A5B00E250002204332000E254F8BD19
:102D600028007EF043F80028E5D01A481A4B067078
:102D7000C7501A4B47609C468760A22200216044DE
:102D80005DF0DEFB28007EF04DF8D4E728007EF0F1
:102D90002DF80028DBD0124B0F4AF3189F501F70FC
:102DA0005F609F600F4BA2220021F0185DF0C8FB0E
:102DB00028007EF037F8CAE700FEFF460000FF7FDC
:102DC000FF7FFF7FFF7F0000A44C002038EB002036
:102DD000A8EB00203CE600208C4000009040000062
:102DE00004FBFFFF943B0000F0B501224E46454630
:102DF000DE465746E0B51600D74D04002B7885B067
:102E0000BFF35B8F1E401A4200D1E8E208205DF05C
:102E1000A3FB0123002599464360DF330560E050A2
:102E200008205DF099FB022398464360E233056079
:102E3000E05008205DF090FB0427E8230560E05097
:102E4000476008205DF088FB0826EC23056046609B
:102E5000E05008205DF080FB4B464360EF33056097
:102E6000E05008205DF078FB43464360F233056094
:102E7000E05008205DF070FBF8230560E0504760EB
:102E800008205DF069FBFC2305604660E0500820E7
:102E90005DF062FB1023F83605604360A051082006
:102EA0005DF05AFB20234360E4330560E0500820C6
:102EB0005DF052FB40234360C8330560E0500820BA
:102EC0005DF04AFB802343608C330560E0500820AE
:102ED0005DF042FB88235B0005604660E0500820FF
:102EE0005DF03AFB80239B004360EC3B0560E050C3
:102EF00008205DF031FB8023DB0043608C235B0006
:102F00000560E05008205DF027FB80231B01436033
:102F10008E235B000560E05008205DF01DFB8023E0
:102F20005B01436090235B000560E05008205DF08A
:102F300013FB80239B01436092235B000560E050FC
:102F400008205DF009FB8023DB01436094235B00D4
:102F50000560E05008205DF0FFFA802696233602D7
:102F60005B0005604660E05008205DF0F5FA8023C4
:102F70005B03436098235B000560E05008205DF030
:102F8000EBFA80239B0343609A235B000560E050CB
:102F900008205DF0E1FA8023DB0343609C235B00A3
:102FA0000560E05008205DF0D7FA80231B044360E1
:102FB0009E235B000560E05008205DF0CDFA802381
:102FC0005B044360A0235B000560E05008205DF0D7
:102FD000C3FA80239B044360A2235B000560E0509A
:102FE00008205DF0B9FA8023DB044360A4235B0072
:102FF0000560E05008205DF0AFFA80231B054360B8
:10300000A6235B000560E05008205DF0A5FA802350
:103010005B054360A8235B000560E05008205DF07D
:103020009BFA80239B054360AA235B000560E05068
:1030300008205DF091FA8023DB054360AC235B0040
:103040000560E05008205DF087FA80231B0643608E
:10305000AE235B000560E05008205DF07DFAB023F0
:103060005B0005604660E05008205DF075FA1823AB
:1030700043604D33FF330560E05008205DF06CFA8B
:1030800019230F2643605033FF330560E0500820BA
:103090005DF062FAB44631491A238C4466460296C2
:1030A000E0264360B14653330436FF33B04604365E
:1030B000E05000220023B4460560294D03908E5C49
:1030C000362E0AD8B600AE59B746AE267600A759B6
:1030D00001269E40386806433E60013314321E2BA1
:1030E000EDD105B0F0BCBB46B246A946A046F0BD46
:1030F000AC267600A759EBE7AA267600A759E7E7A2
:10310000A8267600A759E3E7A6267600A759DFE7A9
:10311000A4267600A759DBE7A2267600A759D7E7B1
:10312000A0267600A759D3E79E267600A759CFE7B9
:103130009C267600A759CBE79A267600A759C7E7C1
:1031400098267600A759C3E796267600A759BFE7C9
:1031500094267600A759BBE7A44C002071270120D4
:10316000B4430810A94887580298805801904846EF
:10317000205882464068384208D001205646984080
:1031800036683043834650465E46066040462058C7
:1031900082464068384208D001205646984036683A
:1031A0003043834650465E4606606046205882465D
:1031B0004068384208D0012056469840366830436F
:1031C000834650465E460660EC20205882464068A2
:1031D000384206D0012750469F40006807435046BA
:1031E0000760F0202758019E7868304204D0012003
:1031F00098403E6830433860F427E759019E78686C
:10320000304204D0012098403E6830433860F827AF
:10321000E759019E7868304204D0012098403E680A
:1032200030433860FC27E759019E7868304204D06B
:10323000012098403E683043386080277F00E7597E
:10324000019E7868304204D0012098403E683043A7
:10325000386082277F00E759019E7868304204D0A9
:10326000012098403E683043386084277F00E7594A
:10327000019E7868304204D0012098403E68304377
:10328000386086277F00E759019E7868304204D075
:10329000012098403E683043386088277F00E75916
:1032A000019E7868304204D0012098403E68304347
:1032B00038608A277F00E759019E7868304204D041
:1032C000012098403E68304338608C277F00E759E2
:1032D000019E7868304204D0012098403E68304317
:1032E00038608E277F00E759019E7868304204D00D
:1032F000012098403E683043386090277F00E759AE
:10330000019E7868304204D0012098403E683043E6
:10331000386092277F00E759019E7868304200D0DC
:10332000D6E6013314321E2B00D0C8E6D9E60126BA
:103330009E40039F01333868143206433E601E2BC3
:1033400000D0BCE6CDE6B4267600A759C0E6B2268A
:103350007600A759BCE6B0267600A759B8E68E26B7
:103360007600A759B4E68C267600A759B0E69226D7
:103370007600A759ACE690267600A759A8E68A26DB
:103380007600A759A4E688267600A759A0E68626E7
:103390007600A7599CE684267600A75998E68226EF
:1033A0007600A75994E680267600A75990E6FC2679
:1033B000A7598DE6F826A7598AE6F426A75987E685
:1033C000F020275884E6EC20275881E660462758ED
:1033D0007EE6404627587BE64E46A75978E6280009
:1033E0007DF004FD002800D110E50948094B067066
:1033F000C650094B46609C468660A222002160446C
:103400005DF09EF828007DF00DFDFFE47827012097
:103410003CE600208C40000090400000E02310B506
:103420000400C058002802D008215DF0A5F8E4236C
:10343000E058002802D008215DF09EF8E823E0580B
:10344000002802D008215DF097F8EC23E05800280E
:1034500002D008215DF090F8F023E058002802D057
:1034600008215DF089F8F423E058002802D00821F3
:103470005DF082F8F823E058002802D008215DF0C2
:103480007BF8FC23E058002802D008215DF074F896
:1034900080235B00E058002802D008215DF06CF822
:1034A00082235B00E058002802D008215DF064F818
:1034B00084235B00E058002802D008215DF05CF80E
:1034C00086235B00E058002802D008215DF054F804
:1034D00088235B00E058002802D008215DF04CF8FA
:1034E0008A235B00E058002802D008215DF044F8F0
:1034F0008C235B00E058002802D008215DF03CF8E6
:103500008E235B00E058002802D008215DF034F8DB
:1035100090235B00E058002802D008215DF02CF8D1
:1035200092235B00E058002802D008215DF024F8C7
:1035300094235B00E058002802D008215DF01CF8BD
:1035400096235B00E058002802D008215DF014F8B3
:1035500098235B00E058002802D008215DF00CF8A9
:103560009A235B00E058002802D008215DF004F89F
:103570009C235B00E058002802D008215CF0FCFF8F
:103580009E235B00E058002802D008215CF0F4FF85
:10359000A0235B00E058002802D008215CF0ECFF7B
:1035A000A2235B00E058002802D008215CF0E4FF71
:1035B000A4235B00E058002802D008215CF0DCFF67
:1035C000A6235B00E058002802D008215CF0D4FF5D
:1035D000A8235B00E058002802D008215CF0CCFF53
:1035E000AA235B00E058002802D008215CF0C4FF49
:1035F000AC235B00E058002802D008215CF0BCFF3F
:10360000AE235B00E058002802D008215CF0B4FF34
:10361000B0235B00E058002802D008215CF0ACFF2A
:10362000B2235B00E058002802D008215CF0A4FF20
:10363000B4235B00E058002802D008215CF09CFF16
:10364000B6235B00E058002802D008215CF094FF0C
:103650002000FFF7C9FB10BDF0B50400C6462100ED
:10366000242200B5043028315CF070FF4B4D2B78DC
:10367000BFF35B8FDB0700D47CE0494E3368002B3F
:1036800009D02B78BFF35B8FDB0700D47CE0306878
:1036900003681B6B9847BC235B00E358DA79002A68
:1036A0002BD12832A15C5A7A002A19D0E022A258E4
:1036B0000D005768E422A258FEB25268100008407C
:1036C000310084462800D2B211438843C1B22F4250
:1036D00001D01143C9B22822A1546246002A2DD13B
:1036E000DA7B002A31D1587904283AD001F046F823
:1036F0002823E05480BCB846F0BD2822A55C904643
:10370000C032A2582E005768EC22A258F8B2526874
:10371000110029408C460100D2B211438E43310082
:103720002F4201D01143C9B24246A1546246002A39
:10373000B9D028220143C9B2A154B4E728223143A9
:10374000C9B2A154DA7B002ACDD0080001F004F8F8
:103750002823E0545133FF33E358010058790428FB
:10376000C4D15B780E2BC1D80E4ADA40D307BDD541
:103770000338BBE728007DF039FB002800D17CE747
:1037800028007DF04FFB78E728007DF02FFB002814
:1037900000D17CE728007DF045FB78E7904C0020C5
:1037A00034E50020964000000122F8B51700C34E12
:1037B00004003378BFF35B8F1F401A4200D154E1FD
:1037C000BF4D280017F0B0FDB823BE4E5B00C558B2
:1037D0003378BFF35B8FDB0700D43CE1BA4F3B6823
:1037E000002B00D135E13378BFF35B8FDB0700D4CA
:1037F00051E1386803681B6B9847B0235B00E258BF
:1038000000231168294200D093882386E023E258E0
:1038100000231168294200D01379E422A2581168CC
:10382000294201D012791343E822A2581168294293
:1038300001D012791343EC22A2581168294201D019
:10384000127913432822A354F023E1580A68130085
:103850002B402A4200D04B68F422A258116829421A
:1038600001D052681343F822A2581168294201D0AE
:1038700052681343FC22A2581168294201D05268B1
:10388000134380225200A2581168294201D0526885
:10389000134382225200A2581168294201D0526873
:1038A000134384225200A2581168294201D0526861
:1038B000134386225200A2581168294201D052684F
:1038C000134388225200A2581168294201D052683D
:1038D00013438A225200A2581168294201D052682B
:1038E00013438C225200A2581168294201D0526819
:1038F00013438E225200A2581168294201D0526807
:10390000134390225200A2581168294201D05268F4
:10391000134392225200A2581168294201D05268E2
:10392000134394225200A2581168294201D05268D0
:10393000134396225200A2581168294201D05268BE
:10394000134398225200A2581168294201D05268AC
:1039500013439A225200A2581168294201D052689A
:1039600013439C225200A2581168294201D0526888
:1039700013439E225200A2581168294201D0526876
:103980001343A0225200A2581168294201D0526864
:103990001343A2225200A2581168294201D0526852
:1039A0001343A4225200A2581168294201D0526840
:1039B0001343A6225200A2581168294201D052682E
:1039C0001343A8225200A2581168294201D052681C
:1039D0001343AA225200A2581168294201D052680A
:1039E0001343AC225200A2581168294201D05268F8
:1039F0001343AE225200A2581168294201D05268E6
:103A00001343E362B2235B00E3581B682B420AD0E6
:103A1000BE2300225B00E25400236086A086E0867D
:103A200020876387F8BDB4235B00E3581B682B42F3
:103A300004D0BE2301225B00E254EDE7B6235B0015
:103A4000E3581B682B4230D0BE2302225B00E254B5
:103A5000E2E71E48D1E630007DF0C8F9002800D129
:103A6000BCE630007DF0DEF9B8E630007DF0BEF94E
:103A7000134D002800D1A4E6154BA222EF50154BA0
:103A800000212F706F60AF60E8185CF059FD3000C6
:103A90007DF0C8F995E630007DF0A8F9002800D146
:103AA000A7E630007DF0BEF9A3E6BC235B00E35837
:103AB000DA78BE235B00E254AEE7C046A44C002097
:103AC0003CE60020904C002034E50020FF7F000001
:103AD0008C40000090400000012270B51600104D8F
:103AE0002B78BFF35B8F1E401A4204D00D4C200090
:103AF00016F016FE70BD28007DF078F9094C0028FC
:103B0000F5D0094BA222E650084B002126706660D2
:103B1000A660E0185CF014FD28007DF083F9E6E76C
:103B2000A44C00203CE600208C40000090400000A7
:103B3000F8B504002A2929D8CB4B89005B589F4649
:103B4000C2235B00C35C122B20D001221700C74E9A
:103B50003378BFF35B8F1F401A4200D1D6E1C44DCA
:103B60000421280017F0EEFA00280FD0BA23012212
:103B70005B00E254012214003378BFF35B8F1C40DA
:103B80001A4200D1ADE1280016F0CAFDF8BD80232D
:103B9000C26A9B011343C362F8E78023C26A5B01D8
:103BA0001343C362F2E72023C26A1343C362EDE703
:103BB0001023C26A1343C362E8E70823C26A1343AF
:103BC000C362E3E70423C26A1343C362DEE702234E
:103BD000C26A1343C362D9E70123C26A1343C362B3
:103BE000D4E7002017F0DAFED0E78023C26A1B0179
:103BF0001343C362CAE78023C26ADB001343C36274
:103C0000C4E7C2235B00C35C112BBFD001221700A5
:103C1000964E3378BFF35B8F1F401A4200D18BE181
:103C2000934D0321280017F08DFA00289ED1ADE7AF
:103C3000C2235B00C35C102BA8D0012217008B4E5F
:103C40003378BFF35B8F1F401A4200D18AE1884D61
:103C50000221280017F076FA002800D086E795E7C1
:103C6000C2235B00C35C0F2B00D18FE7012217003A
:103C70007E4E3378BFF35B8F1F401A4200D187E13D
:103C80007B4D0121280017F05DFA002800D17DE767
:103C90006CE7C2235B00C35C0E2B00D176E70122E8
:103CA0001400724E3378BFF35B8F1C401A4200D170
:103CB00084E16F4D01216F4AAB5C4B40AB5459E737
:103CC0008023C26A5B001343C3625FE7C2235B00C9
:103CD000C35C0C2B00D159E7BC2304225B00C35802
:103CE000624E634D5A7145E78023C26A9B001343BD
:103CF000C3624BE7C2235B00C35C0D2B00D145E7D9
:103D0000BC2301215B00C258584ED37B584D4B4019
:103D1000D3732FE728220121835C0B43835435E7BB
:103D20008023C26A1B021343C3622FE728220221A9
:103D3000835C0B43835429E78023C26ADB0113436E
:103D4000C36223E78023C26A1343C3621EE7402392
:103D5000C26A1343C36219E728220821835C0B431C
:103D6000835413E728220421835C0B4383540DE71B
:103D7000C2235B00C35C2A2B00D107E70122170096
:103D80003A4E3378BFF35B8F1F401A4200D12BE1CC
:103D9000374D280017F01EFAE8E6C2235B00C35C2B
:103DA000032B00D1F2E6BC2302225B00C3582F4E46
:103DB0002F4DDA70DEE6C2235B00C35C012B00D11D
:103DC000E4E6BC2300225B00C358284E284DDA707D
:103DD000D0E6C2235B00C35C072B00D1D6E6BC2330
:103DE00001225B00C358214E214D5A71C2E6C22305
:103DF0005B00C35C062B00D1C8E6BC2300225B003D
:103E0000C3581A4E1A4D5A71B4E6C2235B00C35C04
:103E10000B2B00D1BAE6BC2303225B00C358134E20
:103E2000134D5A71A6E6C2235B00C35C0A2B00D176
:103E3000ACE6BC2301215B00C2580C4E537A0C4DFA
:103E40004B40537296E6C2235B00C35C092B00D142
:103E50009CE6BC2301215B00C258044ED379044D7B
:103E60004B40D37186E6C04690440810A44C002015
:103E70003CE600206D110000C2235B00C35C082BF0
:103E800000D183E6BC2302225B00C3586C4E6D4D0B
:103E90005A716FE6C2235B00C35C232B00D175E629
:103EA00001221700664E3378BFF35B8F1F401A4222
:103EB00000D1AFE0634D280017F066F9BA23012264
:103EC0005B00E25456E6C2235B00C35C022B00D1C8
:103ED0005CE6BC2301225B00C358594E594DDA7091
:103EE00048E630007CF082FF002800D14BE6564BBC
:103EF000A222EC50554B00212C706C60AC60E8188D
:103F00005CF01EFB30007CF08DFF3CE630007CF066
:103F10006DFF4C4D002800D122E64B4BA222EF5002
:103F20004A4B00212F706F60AF60E8185CF008FB0F
:103F300030007CF077FF13E630007CF057FF414DF6
:103F4000002800D16DE6404BA222EF503F4B0021EC
:103F50002F706F60AF60E8185CF0F2FA30007CF010
:103F600061FF5EE630007CF041FF364D002800D155
:103F70006EE6354BA222EF50344B00212F706F605C
:103F8000AF60E8185CF0DCFA30007CF04BFF5FE6D5
:103F900030007CF02BFF2B4D002800D171E62A4B1E
:103FA000A222EF50294B00212F706F60AF60E818FC
:103FB0005CF0C6FA30007CF035FF62E630007CF041
:103FC00015FF204D002800D174E61F4BA222EC50B3
:103FD0001E4B00212C706C60AC60E8185CF0B0FAED
:103FE00030007CF01FFF65E630007CF0FFFE154DD1
:103FF000002800D1CDE6144BA222EF50134B002134
:104000002F706F60AF60E8185CF09AFA30007CF0B7
:1040100009FFBEE630007CF0E9FE0A4D002800D121
:1040200049E7094BA222EF50084B00212F706F6027
:10403000AF60E8185CF084FA30007CF0F3FE3AE7F9
:10404000A44C00203CE600208C4000009040000082
:10405000F0B5D6464F464646BC23C0B55B00C358B4
:1040600005005B7B002B00D0C0E08133FF33C358D9
:104070005C7B002C06D01A69C16A1000084090428F
:1040800000D1D4E029229C5C002C06D0DA6AE96ACF
:1040900010000840904200D1DDE045229C5C002CDD
:1040A00006D0E96A9A6C08001040824200D1E6E02E
:1040B00061229C5C002C06D05A6EE96A1000084010
:1040C000904200D1FAE07D229C5C002C07D00332A4
:1040D0009A58E96A10000840904200D103E1992201
:1040E0009C5C002C07D003329A58E96A1000084003
:1040F000904200D10CE1B5229C5C002C07D0033229
:104100009A58E96A10000840904200D11BE1D12280
:104110009C5C002C07D003329A58E96A10000840D2
:10412000904200D124E1ED229C5C002C07D00332A8
:104130009A58E96A10000840904200D12DE10A2205
:10414000FF329C5C002C07D003329A58E96A1000B9
:104150000840904200D135E12622FF329C5C002CC1
:1041600007D003329A58E96A10000840904200D103
:104170003FE14222FF329C5C002C07D003329A5868
:10418000E96A10000840904200D149E15E22FF3206
:104190009C5C002C07D003329A58E96A1000084052
:1041A000904200D153E17A22FF329C5C002C22D154
:1041B0009622FF329C5C002C07D003329A58E96AA1
:1041C00010000840904200D158E1B222FF329C5CBE
:1041D000002C08D003329A58E96A10000840904237
:1041E00000D162E10024C2235B00EC54E0BCBA467B
:1041F000B146A846F0BD03329A58E96A100008405B
:104200009042D5D12826BA22B246AE5D5200370080
:104210009A5CB1461740BA42CAD1C2277F00DF5B21
:10422000B84646462F8E3740B845C1D184E028268F
:104230001A7AB1461700AE5D3740BC46974200D0AF
:1042400020E71A8B904647462A8E3A40424500D0D6
:1042500018E7814328E05A6AD2B294462822AE5C1D
:1042600091465A6A3240944500D016E79A8E90469D
:1042700047462A8E3A40904500D00EE7E9E7186C91
:10428000C0B2844628202E5C8146186C304084459C
:1042900000D00DE7186D1F6D80B28046288E384023
:1042A000804500D004E7914363469E434B46E96254
:1042B000EE5421002800FFF73BFC94E7DA6DD2B200
:1042C00094462822AE5C9146DA6D3240944500D087
:1042D000F9E6DA6EDF6E92B290462A8E3A40904549
:1042E00000D0F0E6B5E79A6FD2B294462822AE5CD1
:1042F00091469A6F3240944500D0F0E688229A5A4F
:10430000904647462A8E3A40904500D0E7E6A0E71F
:1043100028269422B246AE5D9A5C3700B14617401B
:10432000BA4200D0E7E6A427DF5BB84646462F8EA8
:104330003740B84500D0DEE64E46534681439643AB
:10434000E962EE54B5E72826B022B246AE5D9A5C2B
:104350003700B1461740BA4200D0D8E6C027DF5B2D
:10436000B84646462F8E3740B84500D0CFE6E3E743
:104370002826CC22B246AE5D9A5C3700B146174083
:10438000BA4200D0CFE6DC27DF5BB84646462F8E28
:104390003740B84500D0C6E6CEE72826E822B24628
:1043A000AE5D9A5C3700B1461740BA4200D0C6E60F
:1043B000F827DF5BB84646462F8E3740B84500D019
:1043C000BDE6B9E728268222B246AE5D520037002C
:1043D0009A5CB1461740BA4200D0BDE68A277F00FA
:1043E000DF5BB84646462F8E3740B84500D0B3E66F
:1043F000A2E728269022B246AE5D520037009A5CB2
:10440000B1461740BA4200D0B3E698277F00DF5B81
:10441000B84646462F8E3740B84500D0A9E68BE710
:1044200028269E22B246AE5D520037009A5CB14605
:104430001740BA4200D0A9E6A6277F00DF5BB84646
:1044400046462F8E3740B84500D09FE674E72826B1
:10445000AC22B246AE5D520037009A5CB1461740BE
:10446000BA4200D09FE6B4277F00DF5BB8464646DD
:104470002F8E3740B84500D095E65DE72826C82244
:10448000B246AE5D520037009A5CB1461740BA4260
:1044900000D09AE6D0277F00DF5BB84646462F8ED5
:1044A0003740B84500D090E646E72826D622B046E9
:1044B000AE5D520037009A5C1740BA4200D091E6D8
:1044C000DE277F00DB5B9C4667462B8E3B409C458E
:1044D00000D087E6434681439643E962EE54E8E61E
:1044E00030B5174A8FB0136801331360012B08D120
:1044F0000122144B52421A6000225A609A60DA601C
:104500001A61114A136801331360012B01D00FB0F7
:1045100030BD38220D4968465CF018F800230C4C79
:10452000382023606360A3605CF016F80500382231
:10453000383569462060A5605CF008F86560E6E7FC
:10454000804C0020684C00207C4C00203C4508102A
:104550008835012070B5064D2C68AC4206D020008D
:1045600024680C215CF008F8AC42F8D170BDC0465C
:1045700008D700200C2370B51840042817D008284D
:1045800013D0164C2378BFF35B8FDB0711D5144D86
:104590002B68002B1FD02378BFF35B8FDB0711D56F
:1045A000286803681B6B984700E00E4870BD002028
:1045B000FCE720007CF01AFC0028E8D020007CF00A
:1045C00031FCE4E720007CF011FC0028E8D020005A
:1045D0007CF028FCE4E70448E8E7C046904C002063
:1045E00034E50020FFFF0000FF7F0000032370B5CB
:1045F0001840012817D0022813D0164C2378BFF397
:104600005B8FDB0711D5144D2B68002B1FD023784F
:10461000BFF35B8FDB0711D5286803681B6B9847D6
:1046200000E00E4870BD0020FCE720007CF0DEFBBF
:104630000028E8D020007CF0F5FBE4E720007CF0C7
:10464000D5FB0028E8D020007CF0ECFBE4E7044830
:10465000E8E7C046904C002034E50020FFFF000052
:10466000FF7F0000024B1B18013B18787047C046C3
:10467000744508100122F8B54746CE460E001100D9
:1046800080B5304F04003B78BFF35B8F19408846FC
:104690001A4238D02C4D2D4FBB19013B1B782342B9
:1046A0000FD02B4CA35D002B3ED02C68AC4228D001
:1046B0006B681B7AFF18013F3878C0BCB946B0461A
:1046C000F8BD234B99469B5D002BEED02C68AC4285
:1046D00012D0A04643461B7A2468B34209D1AB6886
:1046E0004046013BAB607CF089FC0C2140465BF00E
:1046F00043FFAC42EDD1246800234A469355AC42B7
:10470000D6D10020D9E738007CF070FB0E4D002890
:10471000C1D043466D602D60AB600E487EF05CFBFF
:1047200038007CF07FFBB6E70C205BF015FF29001A
:1047300006727CF05BFCAB680133AB600123A355D0
:10474000B3E7C046844C002008D700207445081009
:1047500000D700205545001010B504000121FFF7D7
:1047600089FF02212000FFF785FF03212000FFF7CA
:1047700081FF04212000FFF77DFF10BD30B504004C
:104780000800042C19D003230B40022B2DD0032B3F
:1047900034D0012B41D00022454B08201A7004254B
:1047A00000230C220A40082A1BD00C2A0CD0042A11
:1047B00005D0002118003F4A117030BD05250322A5
:1047C0003C4B1A702800F8E7022C47D0032C61D12B
:1047D000384A1178002959D1180000231370ECE7EA
:1047E00009200422334B1A70E7E7314A0A2013707C
:1047F0000C2206250A40082AD7D1F2E7002C15D151
:1048000001220C212A4B08401A700828E8D00C28F5
:1048100043D00428D2D00123CBE7254A09201370C6
:104820000C2205250A40082ABFD1DAE7204A022CCB
:1048300006D0032C1AD00023082004251370B0E7FB
:104840001378002BF7D0012B2AD00920052501234E
:104850000C220A40082AC4D00C2AA8D1154A117883
:104860000029B9D00329A8D02800A6E71378002B87
:10487000E1D0012B18D00A20062502230C220A4081
:10488000082AAED00C2A00D091E7A1E7032900D076
:1048900093E797E71800074A9FE70120054A9CE73E
:1048A00002230A200625D3E709200525E6E7C046AE
:1048B00076DC012075DC01207047C04640687047F7
:1048C000044B10B51868002803D09968091A5BF0EA
:1048D00053FE10BD40E50020F8B50D0004684168A6
:1048E00006008C4212D00A4F02E00434A1420DD0DF
:1048F00023681A79AA42F8D118680368DB69BB42B9
:10490000F3D0984771680434A142F1D1F8BDC04694
:10491000B9480010F8B54568046807000E00AC42BD
:1049200006D023681A79B24203D00434A542F8D1E4
:10493000F8BD1868043403685B6998477D68A54230
:10494000EFD1F5E7F8B54568046807000E00AC4202
:1049500006D023681A79B24203D00434A542F8D1B4
:10496000F8BD1868043403681B6998477D68A54240
:10497000EFD1F5E7F8B5574645464E46DE460368A3
:10498000E0B547689246344A9946FB1A05008846C6
:104990009B1093425CD00126002B02D05E00B342F4
:1049A00050D843464A469C1A002E1BD100239B46F2
:1049B00052465B4612681A51002C23DC43460434ED
:1049C0005C44FF1A002F30DC4B46E719002B35D131
:1049D0005B466F60AE602B60F0BCBB46B246A9463A
:1049E000A046F8BD80239B059E422FD2B600300022
:1049F0005BF0B2FD834652465B4612685E441A5134
:104A0000002CDBDD2200494658467FF0E9FA434698
:104A100004345C44FF1A002F07DC4A46AB68E719F0
:104A2000991A48465BF0A8FDD2E73A0041462000BB
:104A30005BF08CFD4B46E719002BC9D04A46AB68AA
:104A4000991AEEE74A46054E8C1AD0E7024ECDE79A
:104A500003487CF00BFCC046FFFFFF1FFCFFFF7FFD
:104A600078450810F0B50B6806009B68080083B015
:104A70000C0017009847051E06D1236820005B68CC
:104A80009847280003B0F0BD08205BF065FD23685F
:104A90000190DB6820009847019B7168B2681C6038
:104AA0001F71914202D008C17160EAE7300001AA8B
:104AB000FFF760FFE5E7C046F0B5C64600B50B68F6
:104AC00006009B68080082B00C0017009847051E7E
:104AD00008D1236820005B689847280002B080BC9A
:104AE000B846F0BD08205BF037FD23680190DB6815
:104AF00020009847019B7168B2681C601F71914249
:104B00002CD008C1716001221100174E3378BFF319
:104B10005B8F194088461A420AD0144F2368144A02
:104B20001B6A934216D16168380017F077F9D4E711
:104B300030007CF05BF90D4F0028EFD043460D4864
:104B40003B607B60BB603B617EF046F930007CF0EF
:104B500069F9E3E7200098470100E5E7300001AA82
:104B6000FFF708FFCFE7C046984C002040E5002043
:104B7000BD480010C148001070B505000C1E01D0E2
:104B80002C7070BD04205BF0E7FC0600024B036054
:104B90002FF00CFD6E60F3E710DD081010B54068D3
:104BA00003685B68984710BD30B5174A8FB013682B
:104BB00001331360012B08D10122144B52421A60B9
:104BC00000225A609A60DA601A61114A1368013350
:104BD0001360012B01D00FB030BD38220D4968465B
:104BE0005BF0B4FC00230C4C382023606360A360AE
:104BF0005BF0B2FC05003822383569462060A560BC
:104C00005BF0A4FC6560E6E7804C0020684C002067
:104C10007C4C00209445081088350120F0B557469B
:104C20004546DE464E469246274AE0B593468A26DA
:104C30008C221F00431E5A434E43B5185D446B89B6
:104C40000400904685B0BB4209D2002399464846ED
:104C500005B0F0BCBB46B246A946A046F0BD5CF02C
:104C600007F82979814603002000002B28D05DF049
:104C70003DF9297981460029E7D00028E5D12000B7
:104C80005DF088F803900028DFD04C3646445E443F
:104C90003A00514630005BF059FC4B46297932000E
:104CA0000193009320003B005DF0BCF88146002892
:104CB000CDD1200029795DF091F8039B9946C6E794
:104CC0005DF014F9C3E7C046EC5000208C2210B50B
:104CD0000021034892005BF033FC012010BDC04668
:104CE000EC500020F0B50500C6468C246A1E00B5C5
:104CF0005443204E82B03419E778C8098F4235D02A
:104D00002479611A4C1EA1414942C9B20F00012801
:104D100012D0194800280AD08C208A2442437C43B0
:104D20004C32121928009BB2B21817F0F9FA012080
:104D300002B080BCB846F0BD8C245443A04620008D
:104D40008A247C430C300719F7193A0028009BB2DB
:104D500017F0A4FA0022444436193389F178280068
:104D6000019200923A005DF05DF8E0E70027002133
:104D7000CDE7C046EC50002021C30110F0B5C64677
:104D8000050000B504281AD88C26431E5E430D4F3B
:104D9000BB1998460C4B002B0CD0BB5D002B09D0E7
:104DA00000242100280017F049FA0134BB5DE4B269
:104DB000A342F6D88C22002140465BF0C1FB80BCA8
:104DC000B846F0BDEC5000203DC20110F0B557468A
:104DD0004E46DE464546E0B553790F00160085B0D5
:104DE000FF2B09D0032B07D0002005B0F0BCBB4639
:104DF000B246A946A046F0BD7B1E9B468C235A4670
:104E00005A435A4B91461C004C449A46E378002B77
:104E1000EAD12379002BE7D1B3795D2B39D0472B29
:104E2000E2D1F379D02BDFD13379002BDCD0013BF9
:104E3000DBB29846350013E022716B7929791B02A9
:104E40000B435B055B0D2900380063815DF026F89C
:104E50000028C9D04346013BDBB29846FF2B5BD00C
:104E60002B78ED186B78052BBED10223EB56AA7870
:104E7000002BE1DAE2706B7929791B020B435B05A9
:104E80005B0D2900380023815DF008F80028E1D18E
:104E9000AAE7F379013B022BA6D83378F5180395DE
:104EA0006B78212BA0D133795A1ED2B29046002BB9
:104EB0000DD11FE02900380023715CF0EFFF0028BE
:104EC00092D04346013BDBB29846FF2B12D02B78A1
:104ED000ED186B78052B00D086E70222AA56AB7836
:104EE000002AE7DA29003800E3705CF0D7FF0028D9
:104EF000E7D179E78C215A465143B37851448B70FE
:104F000001234B71F379012B20D0534652461B7875
:104F100001200133137068E75A468C215143B3785E
:104F200051448B7002234B71534652461B7800202C
:104F3000013313704A460C320B895244C9780190F0
:104F4000009038005CF06EFF01204EE74A460020DA
:104F5000039B0C321B7952448B710B89C9780190E9
:104F6000009038005CF05EFFCFE7C046EC500020B8
:104F70008C23421E70B55A430B4C0500A3189B7836
:104F8000591A4B1E99418A234942C9B24B439B1877
:104F9000E418A379627917F00FF92800A1785DF081
:104FA00021F9012070BDC046EC50002070B50422EC
:104FB0000021040000255BF0C3FA00230D4AA58000
:104FC000E58025816581A581E58123742000A354B6
:104FD00080220021D20054305BF0B2FA2000064B50
:104FE0004022E552002111305BF0AAFA5223200042
:104FF000E55270BD560400005404000070B5042250
:105000000021040000255BF09BFA00230D4AA580D7
:10501000E58025816581A581E58123742000A35465
:1050200080220021D20054305BF08AFA2000064B27
:105030004022E552002111305BF082FA5223E55202
:1050400070BDC0465604000054040000F0B5C646CA
:1050500004000D0000B5032A64D952270E78C2530C
:10506000012E57D04B7804227F2B31D800215BF0E2
:1050700067FA002600236C4AA680E68026816681B6
:10508000A681E6812374A35454239846A0440021AA
:10509000563A40465BF054FA2000644B4022E652F8
:1050A000002111305BF04CFAE65304222900200065
:1050B0005BF04CFAE678002E61D1012200205B4BB8
:1050C000B6B2E680E652584BE25480BCB846F0BD1A
:1050D0005BF03CFAE278002A46D063785B0661D444
:1050E0002389E088D31896B2238154303A2A02D912
:1050F00080235A4096B22018A91D5BF027FA01229E
:10510000E3880020F618E389E6800133E381464B0B
:10511000E254DAE70D2A05D14B789B0602D5CB780D
:10512000092B32D00422002120005BF009FA00256F
:10513000002320003C4A23740021A580E5802581BE
:105140006581A581E5815430A354563A5BF0F8F9A6
:105150002000364B4022E552002111305BF0F0F97F
:1051600052230020E552B0E76B792879A1881B0211
:105170000343994210D02C4B0020E254A5E73200A3
:105180004046291D5BF0E2F997E7093A5BF0DEF94A
:10519000254B0120E65498E70123234A237401207C
:1051A000A35492E70422002120005BF0C9F90026F5
:1051B000002320001C4A23740021A680E68026815B
:1051C0006681A681E6815430A354563A5BF0B8F963
:1051D0002000164B40220021E65211305BF0B0F95E
:1051E000042229002000E6535BF0B0F9E2783A2A65
:1051F0000AD92B79002B07D16B79A3800B4996B282
:1052000063525420268171E76B7929791B020B4385
:105210008021A38049008B42F0D9013BFF3B9BB228
:10522000190AC9015B1AE9E756040000540400009A
:10523000007C7047014BC05C7047C04656040000BC
:1052400082705A0120231340102230B504AD2D780E
:1052500003AC2D012A4013434F222478017041787A
:10526000E40123430A401343437030BDC02370B5AB
:105270009B010500140000209A4206D828005430F3
:105280005BF064F90120014BEC5270BD5404000046
:10529000F0B5DE4657464E464546E0B54378040035
:1052A00085B07F2B00D87FE0C2899246002A58D073
:1052B000AD4A8789825A9046974200D13BE140220D
:1052C0009343437001235344180005219B4658F033
:1052D0001DFD6378002900D0CAE0102213436370DB
:1052E0004346DB1B392B00DCF8E03B003A223A3323
:1052F0009BB298463A239146019306330393063BAB
:1053000002936589FF2D00D9CBE08022260052420E
:1053100013431136E3702100843230005BF016F93C
:10532000390020005431029A611817305BF00EF9F1
:105330005223039AE2522B0000226275019AEDB2C9
:10534000A5759A18FF2B00D987E0802A00DC84E03D
:105350004B440133FF3363814346A3815B46E381C2
:1053600037E0814A815A39293BD94022134343709F
:1053700000220B000AE03B32FF3292B23A3B9BB272
:10538000002B00D1C2E0392B00D8B6E0100047381E
:105390007E28F0D915003A35100A2E12B04200D1FD
:1053A0007AE0BA3292B2E9E706006F4D1136475BF8
:1053B00001000422C77030005BF0C8F82000210013
:1053C0003A00153054315BF0C1F85222635B04336C
:1053D000A352300005B0F0BCBB46B246A946A04679
:1053E000F0BD3F2213404370838981801D00CB1A9A
:1053F0009AB2102091466278CA46024362704A46C9
:105400008846971DDBB2BFB201923B39442960D870
:105410008022260052421343E37011368432210069
:1054200030005BF093F82900200054315246611897
:1054300017305BF08BF8012252239346E7526389C1
:10544000A588FF2D00D877E7EAB26275019A2D0A88
:10545000A5759A18FF2B00D877E7190A89B212129E
:105460008A421BDD8022494611435B18638173E742
:105470001022934363704346DB1B392B2EDD3B0028
:105480003A339BB298463A230193063303932A3268
:10549000063B9146029334E7AAB26FE74B4463811F
:1054A0005AE726001136E3700422210030005BF039
:1054B0004DF8390020005431029A611817305BF022
:1054C00045F85223039AE25252462B00002ABBD1E0
:1054D000B6E726000422E3701136A0E79AB2102145
:1054E00091466278DBB20A4362704A460292063203
:1054F00092B203924A46019203E7D518100A2E127F
:10550000B0422ED080200343D21892B2A280102243
:105510006378A589134363704A1B2B00392A00DC8A
:1055200065E73A339BB298463A223A2340279A4697
:105530009146019369E710220600934343700023CC
:105540001136C37001000C3A30005AF0FFFFA388F7
:10555000062263751B0AA3755223E252513B237442
:1055600037E7AAB2D2E7C04654040000012382788C
:105570004374C27409221F338374C375002382826B
:105580000278438382754378C28802837F2B08D8D0
:1055900000220023427703770D225223C25211309A
:1055A0007047034BC35A9B1A9AB2120ADBB2F1E757
:1055B000540400005223C05C7047C0464078C006C7
:1055C000C00F7047007870474078C0097047C046E8
:1055D0008078704754307047014BC05A7047C046BE
:1055E000540400004078C006C00F70477047C046A2
:1055F0007047C04600207047030010B504000A4AF7
:10560000643303CA03C320220021201D5AF098FFEF
:10561000064BA360064B2361064B6361064BA361F7
:10562000064BE36110BDC046F84508104D5A061000
:10563000655A0610795A0610595B0610655D06100A
:105640007047C04600207047004870471846081051
:10565000004870472C46081000487047A8460810BC
:105660000020704700487047FF7F0000010010B520
:105670000822180064315AF069FF082010BDC046A6
:105680007F23672270B5835401328354573BCA5C31
:10569000193B040013400A2B06D8434A9B00D358F9
:1056A0009F4668230022C254CA6AD3073CD42F23E2
:1056B0000F21900700D40B00510702D580210B4326
:1056C0001BB2110702D510210B431BB2910603D563
:1056D000802149000B431BB2110603D580218900AC
:1056E0000B431BB2D10503D5802149010B431BB2EB
:1056F000920503D58022920113431BB269219AB20D
:105700006354130A2200693253705FF0E9FA0028EB
:1057100020D12500243464350822290020007EF0A1
:1057200067FB002803D170BD6F234F21C1E7002024
:1057300060F02EF90028F6D008232A00002100206E
:1057400060F042F90028EED00822290020005AF02B
:10575000FDFEE8E75FF0CCFADBE76823FF22C254E6
:10576000A2E767230022C2549EE7002367228354E6
:105770000132835498E767230022C2540133FF3279
:10578000C25491E76723FF22C2548DE76723FF22AB
:10579000C25400220133C25486E7FF236722835498
:1057A0000132835480E7C046CC450810154B8A006F
:1057B00070B5D558002906D1C12413482B78A40010
:1057C0004380048070BD28007DF086FF002816D03D
:1057D00004007F2811D8002200230B48AA5C013363
:1057E0005900DBB242521A009C42F7D8C023013460
:1057F00064009B001C43A4B2E3E77F24EBE7034C67
:105800000148DEE7944608102CD700200203000070
:105810007047C0467047C0460020704710B504006E
:10582000094B20221B680021436604305AF088FE91
:10583000064BA360064B2361064B6361064BA361D5
:10584000064BE36110BDC046404708104D5A061094
:10585000655A0610795A0610595B0610655D0610E8
:105860007047C046002070470048704764470810E2
:10587000004870477847081000487047C047081034
:105880000020704700487047FF7F0000010010B5FE
:105890000422180064315AF059FE042010BDC0469D
:1058A000F8B52823CA5C193B050013400A2B37D8EA
:1058B000364A9B00D3589F46012266235242C25269
:1058C000012637000823CA6A9407E40FA000540792
:1058D000E40F2102174054093F0126403E43304364
:1058E000134001430B43110601D502210B43D1059F
:1058F00001D580210B43910501D540210B43D204F2
:1059000002D58022920013436422AB525FF0E8F983
:10591000002838D1002060F03BF8002822D1F8BDE3
:1059200066231B4AEA52CBE766237F22C252C7E7AF
:1059300066230022C252C3E76623164AC252BFE75B
:105940006623154AC252BBE76623FF22C252B7E75D
:10595000812266235242C252B2E7FE226623D2015E
:10596000C252ADE72C006434042322000021002041
:1059700060F02AF80028D2D0280004222100243028
:105980005AF0E4FDCBE75FF0B3F9C3E71447081022
:105990007F7F000000FFFFFFFF7F0000154B8A00A4
:1059A00070B5D558002906D1C12413482B78A4001E
:1059B0004380048070BD28007DF08EFE002816D044
:1059C00004007F2811D8002200230B48AA5C013371
:1059D0005900DBB242521A009C42F7D8C02301346E
:1059E00064009B001C43A4B2E3E77F24EBE7034C75
:1059F0000148DEE7AC4708102CD800200203000065
:105A00007047C0467047C04600207047002310B55D
:105A100043660B4B802283666C230400C254002132
:105A2000603A04305AF08CFD064BA360064B2361AC
:105A3000064B6361064BA361064BE36110BDC04694
:105A4000088080804D5A0610655A0610795A061053
:105A5000855A0010655D06107047C04600207047EB
:105A6000004870477448081000487047884808107C
:105A700000487047F048081000207047802000025E
:105A80007047C04610B560F067F810BD010010B552
:105A90000922180064315AF059FD092010BDC04692
:105AA000282370B5CA5C193B040013400A2B00D9A7
:105AB000C6E08D4A9B00D3589F466822835C0F2026
:105AC000834303200343A35469224B8E1B0AA35430
:105AD0008B8E01321B0AA354CB8E01321B0AA354B6
